{
  "_format": "hh-sol-artifact-1",
  "contractName": "MessageProxyForSchain",
  "sourceName": "contracts/schain/MessageProxyForSchain.sol",
  "abi": [
    {
      "anonymous": false,
      "inputs": [
        {
          "indexed": false,
          "internalType": "uint256",
          "name": "oldValue",
          "type": "uint256"
        },
        {
          "indexed": false,
          "internalType": "uint256",
          "name": "newValue",
          "type": "uint256"
        }
      ],
      "name": "GasLimitWasChanged",
      "type": "event"
    },
    {
      "anonymous": false,
      "inputs": [
        {
          "indexed": true,
          "internalType": "bytes32",
          "name": "dstChainHash",
          "type": "bytes32"
        },
        {
          "indexed": true,
          "internalType": "uint256",
          "name": "msgCounter",
          "type": "uint256"
        },
        {
          "indexed": true,
          "internalType": "address",
          "name": "srcContract",
          "type": "address"
        },
        {
          "indexed": false,
          "internalType": "address",
          "name": "dstContract",
          "type": "address"
        },
        {
          "indexed": false,
          "internalType": "bytes",
          "name": "data",
          "type": "bytes"
        }
      ],
      "name": "OutgoingMessage",
      "type": "event"
    },
    {
      "anonymous": false,
      "inputs": [
        {
          "indexed": true,
          "internalType": "uint256",
          "name": "msgCounter",
          "type": "uint256"
        },
        {
          "indexed": false,
          "internalType": "bytes",
          "name": "message",
          "type": "bytes"
        }
      ],
      "name": "PostMessageError",
      "type": "event"
    },
    {
      "anonymous": false,
      "inputs": [
        {
          "indexed": true,
          "internalType": "bytes32",
          "name": "role",
          "type": "bytes32"
        },
        {
          "indexed": true,
          "internalType": "bytes32",
          "name": "previousAdminRole",
          "type": "bytes32"
        },
        {
          "indexed": true,
          "internalType": "bytes32",
          "name": "newAdminRole",
          "type": "bytes32"
        }
      ],
      "name": "RoleAdminChanged",
      "type": "event"
    },
    {
      "anonymous": false,
      "inputs": [
        {
          "indexed": true,
          "internalType": "bytes32",
          "name": "role",
          "type": "bytes32"
        },
        {
          "indexed": true,
          "internalType": "address",
          "name": "account",
          "type": "address"
        },
        {
          "indexed": true,
          "internalType": "address",
          "name": "sender",
          "type": "address"
        }
      ],
      "name": "RoleGranted",
      "type": "event"
    },
    {
      "anonymous": false,
      "inputs": [
        {
          "indexed": true,
          "internalType": "bytes32",
          "name": "role",
          "type": "bytes32"
        },
        {
          "indexed": true,
          "internalType": "address",
          "name": "account",
          "type": "address"
        },
        {
          "indexed": true,
          "internalType": "address",
          "name": "sender",
          "type": "address"
        }
      ],
      "name": "RoleRevoked",
      "type": "event"
    },
    {
      "inputs": [],
      "name": "CHAIN_CONNECTOR_ROLE",
      "outputs": [
        {
          "internalType": "bytes32",
          "name": "",
          "type": "bytes32"
        }
      ],
      "stateMutability": "view",
      "type": "function"
    },
    {
      "inputs": [],
      "name": "CONSTANT_SETTER_ROLE",
      "outputs": [
        {
          "internalType": "bytes32",
          "name": "",
          "type": "bytes32"
        }
      ],
      "stateMutability": "view",
      "type": "function"
    },
    {
      "inputs": [],
      "name": "DEFAULT_ADMIN_ROLE",
      "outputs": [
        {
          "internalType": "bytes32",
          "name": "",
          "type": "bytes32"
        }
      ],
      "stateMutability": "view",
      "type": "function"
    },
    {
      "inputs": [],
      "name": "EXTRA_CONTRACT_REGISTRAR_ROLE",
      "outputs": [
        {
          "internalType": "bytes32",
          "name": "",
          "type": "bytes32"
        }
      ],
      "stateMutability": "view",
      "type": "function"
    },
    {
      "inputs": [],
      "name": "MAINNET_HASH",
      "outputs": [
        {
          "internalType": "bytes32",
          "name": "",
          "type": "bytes32"
        }
      ],
      "stateMutability": "view",
      "type": "function"
    },
    {
      "inputs": [
        {
          "internalType": "string",
          "name": "chainName",
          "type": "string"
        }
      ],
      "name": "addConnectedChain",
      "outputs": [],
      "stateMutability": "nonpayable",
      "type": "function"
    },
    {
      "inputs": [
        {
          "internalType": "bytes32",
          "name": "",
          "type": "bytes32"
        }
      ],
      "name": "connectedChains",
      "outputs": [
        {
          "internalType": "uint256",
          "name": "incomingMessageCounter",
          "type": "uint256"
        },
        {
          "internalType": "uint256",
          "name": "outgoingMessageCounter",
          "type": "uint256"
        },
        {
          "internalType": "bool",
          "name": "inited",
          "type": "bool"
        }
      ],
      "stateMutability": "view",
      "type": "function"
    },
    {
      "inputs": [],
      "name": "gasLimit",
      "outputs": [
        {
          "internalType": "uint256",
          "name": "",
          "type": "uint256"
        }
      ],
      "stateMutability": "view",
      "type": "function"
    },
    {
      "inputs": [
        {
          "internalType": "string",
          "name": "fromSchainName",
          "type": "string"
        }
      ],
      "name": "getIncomingMessagesCounter",
      "outputs": [
        {
          "internalType": "uint256",
          "name": "",
          "type": "uint256"
        }
      ],
      "stateMutability": "view",
      "type": "function"
    },
    {
      "inputs": [
        {
          "internalType": "string",
          "name": "targetSchainName",
          "type": "string"
        }
      ],
      "name": "getOutgoingMessagesCounter",
      "outputs": [
        {
          "internalType": "uint256",
          "name": "",
          "type": "uint256"
        }
      ],
      "stateMutability": "view",
      "type": "function"
    },
    {
      "inputs": [
        {
          "internalType": "bytes32",
          "name": "role",
          "type": "bytes32"
        }
      ],
      "name": "getRoleAdmin",
      "outputs": [
        {
          "internalType": "bytes32",
          "name": "",
          "type": "bytes32"
        }
      ],
      "stateMutability": "view",
      "type": "function"
    },
    {
      "inputs": [
        {
          "internalType": "bytes32",
          "name": "role",
          "type": "bytes32"
        },
        {
          "internalType": "uint256",
          "name": "index",
          "type": "uint256"
        }
      ],
      "name": "getRoleMember",
      "outputs": [
        {
          "internalType": "address",
          "name": "",
          "type": "address"
        }
      ],
      "stateMutability": "view",
      "type": "function"
    },
    {
      "inputs": [
        {
          "internalType": "bytes32",
          "name": "role",
          "type": "bytes32"
        }
      ],
      "name": "getRoleMemberCount",
      "outputs": [
        {
          "internalType": "uint256",
          "name": "",
          "type": "uint256"
        }
      ],
      "stateMutability": "view",
      "type": "function"
    },
    {
      "inputs": [
        {
          "internalType": "bytes32",
          "name": "role",
          "type": "bytes32"
        },
        {
          "internalType": "address",
          "name": "account",
          "type": "address"
        }
      ],
      "name": "grantRole",
      "outputs": [],
      "stateMutability": "nonpayable",
      "type": "function"
    },
    {
      "inputs": [
        {
          "internalType": "bytes32",
          "name": "role",
          "type": "bytes32"
        },
        {
          "internalType": "address",
          "name": "account",
          "type": "address"
        }
      ],
      "name": "hasRole",
      "outputs": [
        {
          "internalType": "bool",
          "name": "",
          "type": "bool"
        }
      ],
      "stateMutability": "view",
      "type": "function"
    },
    {
      "inputs": [
        {
          "internalType": "contract KeyStorage",
          "name": "blsKeyStorage",
          "type": "address"
        },
        {
          "internalType": "string",
          "name": "schainName",
          "type": "string"
        }
      ],
      "name": "initialize",
      "outputs": [],
      "stateMutability": "nonpayable",
      "type": "function"
    },
    {
      "inputs": [
        {
          "internalType": "uint256",
          "name": "newGasLimit",
          "type": "uint256"
        }
      ],
      "name": "initializeMessageProxy",
      "outputs": [],
      "stateMutability": "nonpayable",
      "type": "function"
    },
    {
      "inputs": [
        {
          "internalType": "string",
          "name": "schainName",
          "type": "string"
        }
      ],
      "name": "isConnectedChain",
      "outputs": [
        {
          "internalType": "bool",
          "name": "",
          "type": "bool"
        }
      ],
      "stateMutability": "view",
      "type": "function"
    },
    {
      "inputs": [
        {
          "internalType": "string",
          "name": "schainName",
          "type": "string"
        },
        {
          "internalType": "address",
          "name": "contractAddress",
          "type": "address"
        }
      ],
      "name": "isContractRegistered",
      "outputs": [
        {
          "internalType": "bool",
          "name": "",
          "type": "bool"
        }
      ],
      "stateMutability": "view",
      "type": "function"
    },
    {
      "inputs": [],
      "name": "keyStorage",
      "outputs": [
        {
          "internalType": "contract KeyStorage",
          "name": "",
          "type": "address"
        }
      ],
      "stateMutability": "view",
      "type": "function"
    },
    {
      "inputs": [
        {
          "internalType": "string",
          "name": "fromChainName",
          "type": "string"
        },
        {
          "internalType": "uint256",
          "name": "startingCounter",
          "type": "uint256"
        },
        {
          "components": [
            {
              "internalType": "address",
              "name": "sender",
              "type": "address"
            },
            {
              "internalType": "address",
              "name": "destinationContract",
              "type": "address"
            },
            {
              "internalType": "bytes",
              "name": "data",
              "type": "bytes"
            }
          ],
          "internalType": "struct MessageProxy.Message[]",
          "name": "messages",
          "type": "tuple[]"
        },
        {
          "components": [
            {
              "internalType": "uint256[2]",
              "name": "blsSignature",
              "type": "uint256[2]"
            },
            {
              "internalType": "uint256",
              "name": "hashA",
              "type": "uint256"
            },
            {
              "internalType": "uint256",
              "name": "hashB",
              "type": "uint256"
            },
            {
              "internalType": "uint256",
              "name": "counter",
              "type": "uint256"
            }
          ],
          "internalType": "struct MessageProxy.Signature",
          "name": "signature",
          "type": "tuple"
        }
      ],
      "name": "postIncomingMessages",
      "outputs": [],
      "stateMutability": "nonpayable",
      "type": "function"
    },
    {
      "inputs": [
        {
          "internalType": "bytes32",
          "name": "targetChainHash",
          "type": "bytes32"
        },
        {
          "internalType": "address",
          "name": "targetContract",
          "type": "address"
        },
        {
          "internalType": "bytes",
          "name": "data",
          "type": "bytes"
        }
      ],
      "name": "postOutgoingMessage",
      "outputs": [],
      "stateMutability": "nonpayable",
      "type": "function"
    },
    {
      "inputs": [
        {
          "internalType": "string",
          "name": "schainName",
          "type": "string"
        },
        {
          "internalType": "address",
          "name": "extraContract",
          "type": "address"
        }
      ],
      "name": "registerExtraContract",
      "outputs": [],
      "stateMutability": "nonpayable",
      "type": "function"
    },
    {
      "inputs": [
        {
          "internalType": "address",
          "name": "extraContract",
          "type": "address"
        }
      ],
      "name": "registerExtraContractForAll",
      "outputs": [],
      "stateMutability": "nonpayable",
      "type": "function"
    },
    {
      "inputs": [
        {
          "internalType": "bytes32",
          "name": "",
          "type": "bytes32"
        },
        {
          "internalType": "address",
          "name": "",
          "type": "address"
        }
      ],
      "name": "registryContracts",
      "outputs": [
        {
          "internalType": "bool",
          "name": "",
          "type": "bool"
        }
      ],
      "stateMutability": "view",
      "type": "function"
    },
    {
      "inputs": [
        {
          "internalType": "string",
          "name": "schainName",
          "type": "string"
        }
      ],
      "name": "removeConnectedChain",
      "outputs": [],
      "stateMutability": "nonpayable",
      "type": "function"
    },
    {
      "inputs": [
        {
          "internalType": "string",
          "name": "schainName",
          "type": "string"
        },
        {
          "internalType": "address",
          "name": "extraContract",
          "type": "address"
        }
      ],
      "name": "removeExtraContract",
      "outputs": [],
      "stateMutability": "nonpayable",
      "type": "function"
    },
    {
      "inputs": [
        {
          "internalType": "address",
          "name": "extraContract",
          "type": "address"
        }
      ],
      "name": "removeExtraContractForAll",
      "outputs": [],
      "stateMutability": "nonpayable",
      "type": "function"
    },
    {
      "inputs": [
        {
          "internalType": "bytes32",
          "name": "role",
          "type": "bytes32"
        },
        {
          "internalType": "address",
          "name": "account",
          "type": "address"
        }
      ],
      "name": "renounceRole",
      "outputs": [],
      "stateMutability": "nonpayable",
      "type": "function"
    },
    {
      "inputs": [
        {
          "internalType": "bytes32",
          "name": "role",
          "type": "bytes32"
        },
        {
          "internalType": "address",
          "name": "account",
          "type": "address"
        }
      ],
      "name": "revokeRole",
      "outputs": [],
      "stateMutability": "nonpayable",
      "type": "function"
    },
    {
      "inputs": [],
      "name": "schainHash",
      "outputs": [
        {
          "internalType": "bytes32",
          "name": "",
          "type": "bytes32"
        }
      ],
      "stateMutability": "view",
      "type": "function"
    },
    {
      "inputs": [
        {
          "internalType": "uint256",
          "name": "newGasLimit",
          "type": "uint256"
        }
      ],
      "name": "setNewGasLimit",
      "outputs": [],
      "stateMutability": "nonpayable",
      "type": "function"
    },
    {
      "inputs": [
        {
          "internalType": "bytes4",
          "name": "interfaceId",
          "type": "bytes4"
        }
      ],
      "name": "supportsInterface",
      "outputs": [
        {
          "internalType": "bool",
          "name": "",
          "type": "bool"
        }
      ],
      "stateMutability": "view",
      "type": "function"
    },
    {
      "inputs": [
        {
          "components": [
            {
              "internalType": "bytes32",
              "name": "dstChain",
              "type": "bytes32"
            },
            {
              "internalType": "uint256",
              "name": "msgCounter",
              "type": "uint256"
            },
            {
              "internalType": "address",
              "name": "srcContract",
              "type": "address"
            },
            {
              "internalType": "address",
              "name": "dstContract",
              "type": "address"
            },
            {
              "internalType": "bytes",
              "name": "data",
              "type": "bytes"
            }
          ],
          "internalType": "struct MessageProxyForSchain.OutgoingMessageData",
          "name": "message",
          "type": "tuple"
        }
      ],
      "name": "verifyOutgoingMessageData",
      "outputs": [
        {
          "internalType": "bool",
          "name": "isValidMessage",
          "type": "bool"
        }
      ],
      "stateMutability": "view",
      "type": "function"
    }
  ],
  "bytecode": "0x608060405234801561001057600080fd5b506136ca806100206000396000f3fe608060405234801561001057600080fd5b50600436106102065760003560e01c80639010d07c1161011a578063cab010c9116100ad578063f2f636051161007c578063f2f63605146104f8578063f399e22e1461050b578063f68016b71461051e578063f79f795414610527578063f8c88a161461053a57600080fd5b8063cab010c914610470578063d547741f14610483578063e356a6f914610496578063e6ab8403146104a957600080fd5b8063a217fddf116100e9578063a217fddf1461041b578063a8bb1b7d14610423578063bbc4e8c214610436578063ca15c8731461045d57600080fd5b80639010d07c146103b757806391d14854146103e257806394489202146103f5578063999ab9aa1461040857600080fd5b80633cdd2cc31161019d57806367ec60201161016c57806367ec60201461033d5780636e2f37b01461035057806377fe0f31146103635780637aa38a7c146103765780637c5ad80c1461038957600080fd5b80633cdd2cc3146102ef5780634d20385914610302578063523c8ab614610315578063603e5d131461032a57600080fd5b80632f2ff15d116101d95780632f2ff15d146102ab57806336568abe146102c05780633b597ffe146102d35780633b690b6b146102e657600080fd5b806301ffc9a71461020b57806313c5226014610233578063248a9ca31461025657806328c5e18214610279575b600080fd5b61021e610219366004612d03565b61054d565b60405190151581526020015b60405180910390f35b61024860008051602061367583398151915281565b60405190815260200161022a565b610248610264366004612c40565b60009081526065602052604090206001015490565b6102486040516613585a5b9b995d60ca1b60208201526027016040516020818303038152906040528051906020012081565b6102be6102b9366004612c59565b610578565b005b6102be6102ce366004612c59565b61059f565b6102be6102e1366004612c40565b6105c1565b61024860cd5481565b6102be6102fd366004612ecd565b61068c565b6102be610310366004612c06565b61077a565b61024860008051602061361583398151915281565b6102be610338366004612e13565b61087c565b61024861034b366004612d7c565b610a6a565b6102be61035e366004612c40565b610ae3565b610248610371366004612d7c565b610bc1565b61021e610384366004612f8a565b610c67565b61021e610397366004612c59565b60ca60209081526000928352604080842090915290825290205460ff1681565b6103ca6103c5366004612ce1565b610ca1565b6040516001600160a01b03909116815260200161022a565b61021e6103f0366004612c59565b610cc0565b6102be610403366004612c89565b610ceb565b61021e610416366004612ecd565b610da1565b610248600081565b6102be610431366004612c06565b610dea565b6102487f96e3fc3be15159903e053027cff8a23f39a990e0194abcd8ac1cf1b355b8b93c81565b61024861046b366004612c40565b610ec1565b6102be61047e366004612f01565b610ed8565b6102be610491366004612c59565b61109b565b61021e6104a4366004612dbd565b6110a5565b6104db6104b7366004612c40565b60c96020526000908152604090208054600182015460029092015490919060ff1683565b60408051938452602084019290925215159082015260600161022a565b6102be610506366004612d7c565b611133565b6102be610519366004612d2d565b6111bb565b61024860cb5481565b60cc546103ca906001600160a01b031681565b6102be610548366004612f01565b611302565b60006001600160e01b03198216635a05180f60e01b14806105725750610572826113fe565b92915050565b6105828282611433565b600082815260976020526040902061059a9082611459565b505050565b6105a9828261146e565b600082815260976020526040902061059a90826114e8565b6105eb7f96e3fc3be15159903e053027cff8a23f39a990e0194abcd8ac1cf1b355b8b93c33610cc0565b61064b5760405162461bcd60e51b815260206004820152602660248201527f4e6f7420656e6f756768207065726d697373696f6e7320746f2073657420636f6044820152651b9cdd185b9d60d21b60648201526084015b60405180910390fd5b60cb5460408051918252602082018390527f8abddb75fd50f7583079c0b550ec7a54fa3fd8d5dd1d2dfdc473f7ce27e3b9ac910160405180910390a160cb55565b6106a460008051602061367583398151915233610cc0565b6106c05760405162461bcd60e51b8152600401610642906131f4565b6000816040516020016106d391906130e5565b604051602081830303815290604052805190602001209050604051602001610708906613585a5b9b995d60ca1b815260070190565b6040516020818303038152906040528051906020012081141561076d5760405162461bcd60e51b815260206004820152601960248201527f4d61696e6e65742063616e6e6f742062652072656d6f766564000000000000006044820152606401610642565b610776826114fd565b5050565b61079260008051602061361583398151915233610cc0565b6107ae5760405162461bcd60e51b815260040161064290613229565b6001600160a01b0381163b6108055760405162461bcd60e51b815260206004820152601f60248201527f476976656e2061646472657373206973206e6f74206120636f6e7472616374006044820152606401610642565b6001600160a01b0381166000908152600080516020613655833981519152602052604090205460ff161561084b5760405162461bcd60e51b815260040161064290613304565b6001600160a01b0316600090815260008051602061365583398151915260205260409020805460ff19166001179055565b600086866040516020016108919291906130d5565b6040516020818303038152906040528051906020012090506108bc6108b685856115e0565b836116eb565b6109085760405162461bcd60e51b815260206004820152601960248201527f5369676e6174757265206973206e6f74207665726966696564000000000000006044820152606401610642565b600081815260c9602052604090206002015460ff166109645760405162461bcd60e51b815260206004820152601860248201527710da185a5b881a5cc81b9bdd081a5b9a5d1a585b1a5e995960421b6044820152606401610642565b600081815260c9602052604090205485146109e75760405162461bcd60e51b815260206004820152603860248201527f5374617274696e6720636f756e746572206973206e6f74207175616c20746f2060448201527f696e636f6d696e67206d65737361676520636f756e74657200000000000000006064820152608401610642565b60005b83811015610a3d57610a2a82868684818110610a0857610a0861352e565b9050602002810190610a1a919061338e565b610a258960016133a4565b611798565b5080610a35816134bd565b9150506109ea565b50600081815260c9602052604081208054859290610a5c9084906133a4565b909155505050505050505050565b6000808383604051602001610a809291906130d5565b60408051601f198184030181529181528151602092830120600081815260c990935291206002015490915060ff16610aca5760405162461bcd60e51b8152600401610642906132c0565b600090815260c960205260409020600101549392505050565b600054610100900460ff1680610afc575060005460ff16155b610b185760405162461bcd60e51b815260040161064290613272565b600054610100900460ff16158015610b3a576000805461ffff19166101011790555b610b4261191d565b610b4d6000336119a9565b610b65600080516020613675833981519152336119a9565b610b7d600080516020613615833981519152336119a9565b610ba77f96e3fc3be15159903e053027cff8a23f39a990e0194abcd8ac1cf1b355b8b93c336119a9565b60cb8290558015610776576000805461ff00191690555050565b6000808383604051602001610bd79291906130d5565b60408051601f198184030181529181528151602092830120600081815260c990935291206002015490915060ff16610c515760405162461bcd60e51b815260206004820152601f60248201527f536f7572636520636861696e206973206e6f7420696e697469616c697a6564006044820152606401610642565b600090815260c960205260409020549392505050565b8051600090815260ce60209081526040808320828501518452909152812054610c8f836119b3565b811415610c9b57600191505b50919050565b6000828152609760205260408120610cb99083611a1f565b9392505050565b60009182526065602090815260408084206001600160a01b0393909316845291905290205460ff1690565b610cf6838383611a2b565b60006040518060a00160405280858152602001600160c9600088815260200190815260200160002060010154610d2c91906133ef565b81523360208201526001600160a01b03851660408201526060018390528051909150610d57826119b3565b600082815260ce6020908152604080832060d08084528285208054865291845291842094909455848352905281546001929190610d959084906133a4565b90915550505050505050565b600060c9600083604051602001610db891906130e5565b60408051601f198184030181529181528151602092830120835290820192909252016000206002015460ff1692915050565b610e0260008051602061361583398151915233610cc0565b610e1e5760405162461bcd60e51b815260040161064290613229565b6001600160a01b0381166000908152600080516020613655833981519152602052604090205460ff16610e935760405162461bcd60e51b815260206004820181905260248201527f457874726120636f6e7472616374206973206e6f7420726567697374657265646044820152606401610642565b6001600160a01b0316600090815260008051602061365583398151915260205260409020805460ff19169055565b600081815260976020526040812061057290611b82565b610ef060008051602061361583398151915233610cc0565b610f0c5760405162461bcd60e51b815260040161064290613229565b600082604051602001610f1f91906130e5565b604051602081830303815290604052805190602001209050610f4a826001600160a01b03163b151590565b610f965760405162461bcd60e51b815260206004820152601f60248201527f476976656e2061646472657373206973206e6f74206120636f6e7472616374006044820152606401610642565b600081815260ca602090815260408083206001600160a01b038616845290915290205460ff1615610fd95760405162461bcd60e51b815260040161064290613304565b6001600160a01b0382166000908152600080516020613655833981519152602052604090205460ff161561106b5760405162461bcd60e51b815260206004820152603360248201527f457874726120636f6e747261637420697320616c7265616479207265676973746044820152726572656420666f7220616c6c20636861696e7360681b6064820152608401610642565b600090815260ca602090815260408083206001600160a01b03909416835292905220805460ff1916600117905550565b6105a98282611b8c565b600060ca600085856040516020016110be9291906130d5565b60408051601f19818403018152918152815160209283012083528282019390935290820160009081206001600160a01b0386168252909152205460ff168061112b57506001600160a01b0382166000908152600080516020613655833981519152602052604090205460ff165b949350505050565b600082826040516020016111489291906130d5565b60405160208183030381529060405280519060200120905060cd548114156111b25760405162461bcd60e51b815260206004820152601c60248201527f53636861696e2063616e6e6f7420636f6e6e65637420697473656c66000000006044820152606401610642565b61059a81611bb2565b600054610100900460ff16806111d4575060005460ff16155b6111f05760405162461bcd60e51b815260040161064290613272565b600054610100900460ff16158015611212576000805461ffff19166101011790555b61121e622dc6c0610ae3565b60cc80546001600160a01b0385166001600160a01b031990911617905560408051606081018252600080825260208083018290526001838501529251919260c99261127791016613585a5b9b995d60ca1b815260070190565b60408051808303601f19018152918152815160209283012083528282019390935290820160002083518155838201516001820155928201516002909301805460ff191693151593909317909255516112d1918491016130e5565b60408051601f19818403018152919052805160209091012060cd55801561059a576000805461ff0019169055505050565b61131a60008051602061361583398151915233610cc0565b6113365760405162461bcd60e51b815260040161064290613229565b60008260405160200161134991906130e5565b60408051601f198184030181529181528151602092830120600081815260ca84528281206001600160a01b038716825290935291205490915060ff166113d15760405162461bcd60e51b815260206004820181905260248201527f457874726120636f6e7472616374206973206e6f7420726567697374657265646044820152606401610642565b600090815260ca602090815260408083206001600160a01b03909416835292905220805460ff1916905550565b60006001600160e01b03198216637965db0b60e01b148061057257506301ffc9a760e01b6001600160e01b0319831614610572565b60008281526065602052604090206001015461144f8133611c98565b61059a8383611cfc565b6000610cb9836001600160a01b038416611d82565b6001600160a01b03811633146114de5760405162461bcd60e51b815260206004820152602f60248201527f416363657373436f6e74726f6c3a2063616e206f6e6c792072656e6f756e636560448201526e103937b632b9903337b91039b2b63360891b6064820152608401610642565b6107768282611dd1565b6000610cb9836001600160a01b038416611e38565b61151560008051602061367583398151915233610cc0565b6115315760405162461bcd60e51b8152600401610642906131f4565b60008160405160200161154491906130e5565b60408051601f198184030181529181528151602092830120600081815260c990935291206002015490915060ff166115b95760405162461bcd60e51b815260206004820152601860248201527710da185a5b881a5cc81b9bdd081a5b9a5d1a585b1a5e995960421b6044820152606401610642565b600090815260c9602052604081208181556001810191909155600201805460ff1916905550565b6000606060005b838110156116db57818585838181106116025761160261352e565b9050602002810190611614919061338e565b611622906020810190612c06565b60601b6001600160601b0319168686848181106116415761164161352e565b9050602002810190611653919061338e565b611664906040810190602001612c06565b60601b6001600160601b0319168787858181106116835761168361352e565b9050602002810190611695919061338e565b6116a3906040810190613348565b6040516020016116b795949392919061309b565b604051602081830303815290604052915080806116d3906134bd565b9150506115e7565b5080516020909101209392505050565b604080518082018252823581526020808401359082015260cc548251632aa77bd360e11b81528351600094610cb9949388936080808a013594938a01359360608b0135936001600160a01b03169263554ef7a6926004808301939192829003018186803b15801561175b57600080fd5b505afa15801561176f573d6000803e3d6000fd5b505050506040513d601f19601f820116820180604052508101906117939190612f47565b611f2c565b60006117aa6040840160208501612c06565b6001600160a01b031663884cee5a60cb54868660000160208101906117cf9190612c06565b6117dc6040890189613348565b6040518663ffffffff1660e01b81526004016117fb949392919061319a565b602060405180830381600088803b15801561181557600080fd5b5087f193505050508015611846575060408051601f3d908101601f1916820190925261184391810190612c23565b60015b6119165761185261355a565b806308c379a014156118b45750611867613576565b8061187257506118b6565b827f4b7d3908626050c0d998d657e4e6f31cb43ed736bf2b9a1a0192494537ca0e59826040516118a291906131e1565b60405180910390a26000915050610cb9565b505b3d8080156118e0576040519150601f19603f3d011682016040523d82523d6000602084013e6118e5565b606091505b50827f4b7d3908626050c0d998d657e4e6f31cb43ed736bf2b9a1a0192494537ca0e59826040516118a291906131e1565b9050610cb9565b600054610100900460ff1680611936575060005460ff16155b6119525760405162461bcd60e51b815260040161064290613272565b600054610100900460ff16158015611974576000805461ffff19166101011790555b61197c6120f6565b6119846120f6565b61198c6120f6565b6119946120f6565b80156119a6576000805461ff00191690555b50565b6105828282612160565b6000808260000151836020015160001b846040015160601b6001600160601b031916856060015160601b6001600160601b0319168660800151604051602001611a00959493929190613060565b60408051601f1981840301815291905280516020909101209392505050565b6000610cb9838361216a565b600083815260c9602052604090206002015460ff16611a5c5760405162461bcd60e51b8152600401610642906132c0565b336000908152600080516020613655833981519152602052604090205460ff1680611aa05750600083815260ca6020908152604080832033845290915290205460ff165b611af65760405162461bcd60e51b815260206004820152602160248201527f53656e64657220636f6e7472616374206973206e6f74207265676973746572656044820152601960fa1b6064820152608401610642565b336001600160a01b031660c9600085815260200190815260200160002060010154847f803d7f3ca0e5f93fcce39fa29812ed57a95a151594966e17125220132741c6b08585604051611b49929190613176565b60405180910390a4600160c960008581526020019081526020016000206001016000828254611b7891906133a4565b9091555050505050565b6000610572825490565b600082815260656020526040902060010154611ba88133611c98565b61059a8383611dd1565b611bca60008051602061367583398151915233610cc0565b611be65760405162461bcd60e51b8152600401610642906131f4565b600081815260c9602052604090206002015460ff1615611c485760405162461bcd60e51b815260206004820152601a60248201527f436861696e20697320616c726561647920636f6e6e65637465640000000000006044820152606401610642565b6040805160608101825260008082526020808301828152600184860181815296845260c9909252939091209151825591519181019190915590516002909101805460ff1916911515919091179055565b611ca28282610cc0565b61077657611cba816001600160a01b031660146121f0565b611cc58360206121f0565b604051602001611cd6929190613101565b60408051601f198184030181529082905262461bcd60e51b8252610642916004016131e1565b611d068282610cc0565b6107765760008281526065602090815260408083206001600160a01b03851684529091529020805460ff19166001179055611d3e3390565b6001600160a01b0316816001600160a01b0316837f2f8788117e7eff1d82e926ec794901d17c78024a50270940304540a733656f0d60405160405180910390a45050565b6000818152600183016020526040812054611dc957508154600181810184556000848152602080822090930184905584548482528286019093526040902091909155610572565b506000610572565b611ddb8282610cc0565b156107765760008281526065602090815260408083206001600160a01b0385168085529252808320805460ff1916905551339285917ff6391f5c32d9c69d2a47ea670b442974b53935d1edc7fd64eb21e047a839171b9190a45050565b60008181526001830160205260408120548015611f1b576000611e5c6001836133ef565b8554909150600090611e70906001906133ef565b90506000866000018281548110611e8957611e8961352e565b9060005260206000200154905080876000018481548110611eac57611eac61352e565b600091825260208083209091019290925582815260018901909152604090208490558654879080611edf57611edf613518565b60019003818190600052602060002001600090559055866001016000878152602001908152602001600020600090556001945050505050610572565b6000915050610572565b5092915050565b6000611f378761238b565b611f7c5760405162461bcd60e51b815260206004820152601660248201527514da59db985d1d5c99481a5cc81b9bdd081d985b1a5960521b6044820152606401610642565b611f88868686866123c1565b611f94575060006120ec565b6000611fa388602001516124ad565b9050611fb38860000151826124d2565b611ff05760405162461bcd60e51b815260206004820152600e60248201526d5369676e206e6f7420696e20473160901b6044820152606401610642565b611ffa85856124d2565b6120375760405162461bcd60e51b815260206004820152600e60248201526d48617368206e6f7420696e20473160901b6044820152606401610642565b6000612041612508565b905061204c846125c8565b61208f5760405162461bcd60e51b8152602060048201526014602482015273283ab13634b19025b2bc903737ba1034b710239960611b6044820152606401610642565b6120e78960000151838360000151602001518460000151600001518560200151602001518660200151600001518c8c8c60000151602001518d60000151600001518e60200151602001518f60200151600001516125dc565b925050505b9695505050505050565b600054610100900460ff168061210f575060005460ff16155b61212b5760405162461bcd60e51b815260040161064290613272565b600054610100900460ff16158015611994576000805461ffff191661010117905580156119a6576000805461ff001916905550565b6107768282611cfc565b815460009082106121c85760405162461bcd60e51b815260206004820152602260248201527f456e756d657261626c655365743a20696e646578206f7574206f6620626f756e604482015261647360f01b6064820152608401610642565b8260000182815481106121dd576121dd61352e565b9060005260206000200154905092915050565b606060006121ff8360026133d0565b61220a9060026133a4565b6001600160401b0381111561222157612221613544565b6040519080825280601f01601f19166020018201604052801561224b576020820181803683370190505b509050600360fc1b816000815181106122665761226661352e565b60200101906001600160f81b031916908160001a905350600f60fb1b816001815181106122955761229561352e565b60200101906001600160f81b031916908160001a90535060006122b98460026133d0565b6122c49060016133a4565b90505b600181111561233c576f181899199a1a9b1b9c1cb0b131b232b360811b85600f16601081106122f8576122f861352e565b1a60f81b82828151811061230e5761230e61352e565b60200101906001600160f81b031916908160001a90535060049490941c9361233581613436565b90506122c7565b508315610cb95760405162461bcd60e51b815260206004820181905260248201527f537472696e67733a20686578206c656e67746820696e73756666696369656e746044820152606401610642565b60006000805160206136358339815191528260000151108015610572575050602001516000805160206136358339815191521190565b600060648411156123d45750600061112b565b60006123ee600080516020613635833981519152876134d8565b905060008051602061363583398151915261240986836133a4565b61241391906134d8565b905060006000805160206136358339815191526003600080516020613635833981519152846000805160206136358339815191528687090908905061246760026000805160206136358339815191526133bc565b84108061248557508060008051602061363583398151915285860914155b806124905750848214155b156124a05760009250505061112b565b5060019695505050505050565b60006000805160206136358339815191526124c883826133ef565b61057291906134d8565b6000600080516020613635833981519152806003818681888909090881806124fc576124fc613502565b84850914949350505050565b612510612a82565b50604080516080810182527f1800deef121f1e76426a00665e5c4479674322d4f75edadd46debd5cd992f6ed8183019081527f198e9393920d483a7260bfb731fb5d25f1aa493335a9e71297e485b7aef312c26060830152815281518083019092527f12c85ea5db8c6deb4aab71808dcb408fe3d1e7690c43d37b4ce6cc0166fa7daa82527f090689d0585ff075ec9e99ad690c3395bc4b313370b38ef355acdadcd122975b60208381019190915281019190915290565b6000610572826000015183602001516126ac565b6000806125e7612ac6565b8e8152602081018e9052604081018d9052606081018c9052608081018b905260a081018a905260c0810189905260e081018890526101008101879052610120810186905261014081018590526101608101849052612643612ae5565b602081610180846008600019fa9250826126965760405162461bcd60e51b815260206004820152601460248201527314185a5c9a5b99c818da1958dac819985a5b195960621b6044820152606401610642565b5115159f9e505050505050505050505050505050565b60006126b88383612780565b156126c557506001610572565b60006126d0836127b3565b90506000612763612740604080518082018252600080825260209182015281518083019092527f2b149d40ceb8aaae81be18991be06ac3b5b4c5e559dbefa33267e6dc24a138e582527e9713b03af0fed4cd2cafadeed8fdf4a74fa084e52d1852e4a2bd0685c315d29082015290565b61275d612756886127508a6127b3565b90612869565b859061297c565b9061297c565b805190915015801561277757506020810151155b95945050505050565b815160009015801561279457506020830151155b80156127a1575081516001145b8015610cb95750506020015115919050565b604080518082019091526000808252602082015260008051602061363583398151915260008160208501518551099050600082806127f3576127f3613502565b838061280157612801613502565b848061280f5761280f613502565b602088015161281f6001886133ef565b09875108848061283157612831613502565b60208801518851080990506040518060400160405280828152602001848061285b5761285b613502565b848508905295945050505050565b6040805180820190915260008082526020820152600060008051602061363583398151915290506000604051806040016040528083806128ab576128ab613502565b8651885109815260200183806128c3576128c3613502565b86602001518860200151099052905081806128e0576128e0613502565b82806128ee576128ee613502565b60208301516128fe6001866133ef565b098251088352818061291257612912613502565b828061292057612920613502565b602083015183510861293290846133ef565b838061294057612940613502565b848061294e5761294e613502565b6020880151885108858061296457612964613502565b60208a01518a51080908602084015250909392505050565b60408051808201909152600080825260208201528151835160008051602061363583398151915291116129cd5780806129b7576129b7613502565b83516129c390836133ef565b8551088252612a02565b8081806129dc576129dc613502565b85516129e890846133ef565b8551086129f590836133ef565b6129ff91906134d8565b82525b8260200151846020015110612a3e578080612a1f57612a1f613502565b6020840151612a2e90836133ef565b8560200151086020830152611f25565b808180612a4d57612a4d613502565b6020860151612a5c90846133ef565b856020015108612a6c90836133ef565b612a7691906134d8565b60208301525092915050565b60408051608081018252600091810182815260608201929092529081908152602001612ac1604051806040016040528060008152602001600081525090565b905290565b604051806101800160405280600c906020820280368337509192915050565b60405180602001604052806001906020820280368337509192915050565b600082601f830112612b1457600080fd5b81356001600160401b03811115612b2d57612b2d613544565b604051612b44601f8301601f191660200182613491565b818152846020838601011115612b5957600080fd5b816020850160208301376000918101602001919091529392505050565b60008083601f840112612b8857600080fd5b5081356001600160401b03811115612b9f57600080fd5b602083019150836020828501011115612bb757600080fd5b9250929050565b600060408284031215612bd057600080fd5b604051612bdc8161344d565b80915082518152602083015160208201525092915050565b600060a08284031215610c9b57600080fd5b600060208284031215612c1857600080fd5b8135610cb9816135ff565b600060208284031215612c3557600080fd5b8151610cb9816135ff565b600060208284031215612c5257600080fd5b5035919050565b60008060408385031215612c6c57600080fd5b823591506020830135612c7e816135ff565b809150509250929050565b600080600060608486031215612c9e57600080fd5b833592506020840135612cb0816135ff565b915060408401356001600160401b03811115612ccb57600080fd5b612cd786828701612b03565b9150509250925092565b60008060408385031215612cf457600080fd5b50508035926020909101359150565b600060208284031215612d1557600080fd5b81356001600160e01b031981168114610cb957600080fd5b60008060408385031215612d4057600080fd5b8235612d4b816135ff565b915060208301356001600160401b03811115612d6657600080fd5b612d7285828601612b03565b9150509250929050565b60008060208385031215612d8f57600080fd5b82356001600160401b03811115612da557600080fd5b612db185828601612b76565b90969095509350505050565b600080600060408486031215612dd257600080fd5b83356001600160401b03811115612de857600080fd5b612df486828701612b76565b9094509250506020840135612e08816135ff565b809150509250925092565b6000806000806000806101008789031215612e2d57600080fd5b86356001600160401b0380821115612e4457600080fd5b612e508a838b01612b76565b9098509650602089013595506040890135915080821115612e7057600080fd5b818901915089601f830112612e8457600080fd5b813581811115612e9357600080fd5b8a60208260051b8501011115612ea857600080fd5b602083019550809450505050612ec18860608901612bf4565b90509295509295509295565b600060208284031215612edf57600080fd5b81356001600160401b03811115612ef557600080fd5b61112b84828501612b03565b60008060408385031215612f1457600080fd5b82356001600160401b03811115612f2a57600080fd5b612f3685828601612b03565b9250506020830135612c7e816135ff565b600060808284031215612f5957600080fd5b604051612f658161344d565b612f6f8484612bbe565b8152612f7e8460408501612bbe565b60208201529392505050565b600060208284031215612f9c57600080fd5b81356001600160401b0380821115612fb357600080fd5b9083019060a08286031215612fc757600080fd5b604051612fd381613472565b82358152602083013560208201526040830135612fef816135ff565b60408201526060830135613002816135ff565b606082015260808301358281111561301957600080fd5b61302587828601612b03565b60808301525095945050505050565b6000815180845261304c816020860160208601613406565b601f01601f19169290920160200192915050565b8581528460208201528360408201528260608201526000825161308a816080850160208701613406565b919091016080019695505050505050565b600086516130ad818460208b01613406565b8201868152602081018690528385604083013760009301604001928352509095945050505050565b8183823760009101908152919050565b600082516130f7818460208701613406565b9190910192915050565b7f416363657373436f6e74726f6c3a206163636f756e7420000000000000000000815260008351613139816017850160208801613406565b7001034b99036b4b9b9b4b733903937b6329607d1b601791840191820152835161316a816028840160208801613406565b01602801949350505050565b6001600160a01b038316815260406020820181905260009061112b90830184613034565b8481526001600160a01b03841660208201526060604082018190528101829052818360808301376000818301608090810191909152601f909201601f191601019392505050565b602081526000610cb96020830184613034565b6020808252818101527f434841494e5f434f4e4e4543544f525f524f4c45206973207265717569726564604082015260600190565b60208082526029908201527f45585452415f434f4e54524143545f5245474953545241525f524f4c45206973604082015268081c995c5d5a5c995960ba1b606082015260800190565b6020808252602e908201527f496e697469616c697a61626c653a20636f6e747261637420697320616c72656160408201526d191e481a5b9a5d1a585b1a5e995960921b606082015260800190565b60208082526024908201527f44657374696e6174696f6e20636861696e206973206e6f7420696e697469616c6040820152631a5e995960e21b606082015260800190565b60208082526024908201527f457874726120636f6e747261637420697320616c726561647920726567697374604082015263195c995960e21b606082015260800190565b6000808335601e1984360301811261335f57600080fd5b8301803591506001600160401b0382111561337957600080fd5b602001915036819003821315612bb757600080fd5b60008235605e198336030181126130f757600080fd5b600082198211156133b7576133b76134ec565b500190565b6000826133cb576133cb613502565b500490565b60008160001904831182151516156133ea576133ea6134ec565b500290565b600082821015613401576134016134ec565b500390565b60005b83811015613421578181015183820152602001613409565b83811115613430576000848401525b50505050565b600081613445576134456134ec565b506000190190565b604081018181106001600160401b038211171561346c5761346c613544565b60405250565b60a081018181106001600160401b038211171561346c5761346c613544565b601f8201601f191681016001600160401b03811182821017156134b6576134b6613544565b6040525050565b60006000198214156134d1576134d16134ec565b5060010190565b6000826134e7576134e7613502565b500690565b634e487b7160e01b600052601160045260246000fd5b634e487b7160e01b600052601260045260246000fd5b634e487b7160e01b600052603160045260246000fd5b634e487b7160e01b600052603260045260246000fd5b634e487b7160e01b600052604160045260246000fd5b600060033d11156135735760046000803e5060005160e01c5b90565b600060443d10156135845790565b6040516003193d81016004833e81513d6001600160401b0381602484011181841117156135b357505050505090565b82850191508151818111156135cb5750505050505090565b843d87010160208285010111156135e55750505050505090565b6135f460208286010187613491565b509095945050505050565b6001600160a01b03811681146119a657600080fdfe6155b5aac15ce9aa193c0527a6f43be0a36a7e2e7496c2b615c0e5f92284277330644e72e131a029b85045b68181585d97816a916871ca8d3c208c16d87cfd47992e0e3e7050db88ec37ec33505f46a9813ea5551fe17ef58dc201344bcbaf932785f35fe7d8743aa971942d8474737bb31895d396eff2cc688a481e0221e191a2646970667358221220700b9e22410dc84867382becd759689e830449ef877c8c8529c78e58cff317e864736f6c63430008060033",
  "linkReferences": {},
  "deployedLinkReferences": {}
}